:020000040800F2
:1000000000500020CD4E0008A53A0008A73A00088D
:10001000A93A0008AB3A0008AD3A00080000000019
:10002000000000000000000000000000AF3A0008DF
:10003000B13A000800000000B33A0008B53A0008E1
:10004000154F0008154F0008154F0008154F000800
:10005000154F0008154F0008154F0008154F0008F0
:10006000154F0008154F0008154F0008154F0008E0
:10007000154F0008154F0008154F0008BD3A00083D
:10008000154F0008154F0008154F0008154F0008C0
:10009000154F0008154F0008154F0008154F0008B0
:1000A000154F0008154F0008154F0008154F0008A0
:1000B000154F0008154F0008154F0008154F000890
:1000C000154F0008154F0008154F0008154F000880
:1000D000CD3A0008154F0008154F0008154F0008CD
:1000E000154F0008154F0008154F000800000000CC
:1000F0000000000000000000000000000000000000
:0C01000000000000000000005FF808F1A3
:1001100080F0004002E000BF81F0004142001FBFBC
:100120005FEA410392EA030F7FEA226C7FEA236CC5
:100130006AD04FEA1262D2EB1363C1BFD2184140BA
:1001400048404140B8BF5B42192B88BF704710F050
:10015000004F40F4000020F07F4018BF404211F0F3
:10016000004F41F4000121F07F4118BF494292EA5B
:10017000030F3FD0A2F1010241FA03FC10EB0C0087
:10018000C3F1200301FA03F100F0004302D5494214
:1001900060EB4000B0F5000F13D3B0F1807F06D3C1
:1001A00040084FEA310102F10102FE2A51D2B1F1B9
:1001B000004F40EBC25008BF20F0010040EA0300AE
:1001C0007047490040EB0000013A28BFB0F5000F2E
:1001D000EDD2B0FA80FCACF1080CB2EB0C0200FAE4
:1001E0000CF0AABF00EBC25052421843BCBFD04033
:1001F0001843704792F0000F81F4000106BF80F4AD
:1002000000000132013BB5E74FEA41037FEA226C6F
:1002100018BF7FEA236C21D092EA030F04D092F03A
:10022000000F08BF0846704790EA010F1CBF00206E
:10023000704712F07F4F04D1400028BF40F00040CB
:10024000704712F100723CBF00F50000704700F0EB
:10025000004343F0FE4040F4000070477FEA226212
:1002600016BF08467FEA23630146420206BF5FEAE3
:10027000412390EA010F40F4800070474FF00003E3
:1002800004E000BF10F0004348BF40425FEA000CAA
:1002900008BF704743F0964301464FF000001CE052
:1002A00050EA010208BF70474FF000030AE000BFA8
:1002B00050EA010208BF704711F0004302D54042E6
:1002C00061EB41015FEA010C02BF84460146002058
:1002D00043F0B64308BFA3F18053A3F50003BCFA73
:1002E0008CF2083AA3EBC25310DB01FA02FC634420
:1002F00000FA02FCC2F12002BCF1004F20FA02F227
:1003000043EB020008BF20F00100704702F1200219
:1003100001FA02FCC2F1200250EA4C0021FA02F27A
:1003200043EB020008BF20EADC7070474FF0FF3C4F
:1003300006E000BF4FF0010C02E000BF4FF0010CDF
:100340004DF804CD4FEA40024FEA41037FEA226CA8
:1003500018BF7FEA236C11D001B052EA530C18BFCA
:1003600090EA010F58BFB2EB030088BFC81738BF2F
:100370006FEAE17018BF40F0010070477FEA226C1D
:1003800002D15FEA402C05D17FEA236CE4D15FEA19
:10039000412CE1D05DF8040B704700BF844608464D
:1003A0006146FFE70FB5FFF7C9FF002848BF10F10E
:1003B000000F0FBD4DF808EDFFF7F4FF0CBF012053
:1003C00000205DF808FB00BF4DF808EDFFF7EAFFDD
:1003D00034BF012000205DF808FB00BF4DF808ED98
:1003E000FFF7E0FF94BF012000205DF808FB00BF8D
:1003F0004DF808EDFFF7D2FF94BF012000205DF813
:1004000008FB00BF4DF808EDFFF7C8FF34BF01201F
:1004100000205DF808FB00BF4FEA4002B2F1FE4F3A
:100420000FD34FF09E03B3EB12620DD94FEA0023B6
:1004300043F0004310F0004F23FA02F018BF40428F
:1004400070474FF00000704712F1610F01D1420276
:1004500005D110F0004008BF6FF0004070474FF02A
:100460000000704742000ED2B2F1FE4F0BD34FF0A6
:100470009E03B3EB126209D44FEA002343F000431A
:1004800023FA02F070474FF00000704712F1610F3D
:1004900001D1420202D14FF0FF3070474FF000000F
:1004A000704700BF00F1340191E838009C46A64631
:1004B0004CF8045D90E8FF0FE54600BD90EC210B81
:1004C000704700BF80EC210B704700BF90EC200B01
:1004D000704700BF80EC200B704700BFD0EC200BB2
:1004E000704700BFC0EC200B704700BFF0EC02016A
:1004F000F0EC0211F0EC0221F0EC0231F0EC0241E0
:10050000F0EC0251F0EC0261F0EC0271F0EC0281CF
:10051000F0EC0291F0EC02A1F0EC02B1F0EC02C1BF
:10052000F0EC02D1F0EC02E1F0EC02F1704700BF18
:10053000E0EC0201E0EC0211E0EC0221E0EC02311F
:10054000E0EC0241E0EC0251E0EC0261E0EC02710F
:10055000E0EC0281E0EC0291E0EC02A1E0EC02B1FF
:10056000E0EC02C1E0EC02D1E0EC02E1E0EC02F1EF
:10057000704700BFB0FC0181B0FC0191B0FC01A14B
:10058000B0FC01B1704700BFA0FC0181A0FC01914B
:10059000A0FC01A1A0FC01B1704700BFEC4600B572
:1005A0002DE900502DE9FF1F4FF000032DE90C004D
:1005B00001A90CF00DF9DDF840E012B0704700BF62
:1005C000EC4600B52DE900502DE9FF1F4FF0000368
:1005D0002DE90C0001A90CF03BF9DDF840E012B068
:1005E000704700BFEC4600B52DE900502DE9FF1F14
:1005F0004FF000032DE90C0001A90CF049F9DDF8DA
:1006000040E012B0704700BFEC4600B52DE9005045
:100610002DE9FF1F4FF000032DE90C0001AB0CF09A
:100620000BF9DDF840E012B0704700BFEC4600B5B2
:100630002DE900502DE9FF1F4FF000032DE90C00BC
:1006400001AA0CF083F9DDF840E012B0704700BF5A
:1006500080EA010C1CF0030F37D110F0030C20F0DE
:10066000030021F0030150F8042B08BF51F8043BAC
:100670000ED08CF0030C6FF07F434FEACC0C23FAC2
:100680000CFC51F8043B42EA0C0243EA0C0300BFA5
:10069000A2F1013C9A4201BF2CEA020C1CF0803FFF
:1006A00050F8042B51F8043BF2D04FEA02604FEAB5
:1006B0001222012828BFB0EB036F08BF1B0AF4D039
:1006C00003F0FF03000EC01A704710F0030F0AD0AA
:1006D00010F8012B11F8013B012A28BF9A42F4D0EF
:1006E000A2EB030070474DF8045D50F8042B01F0B5
:1006F000030521F0030151F8043B022D26D04DD80B
:1007000022F07F45B5EB132FA2F1013C2CEA020C3D
:100710000DD11CF0803C08BF51F8043B0AD185EA9A
:100720000205B5EB036F0CD150F8042BE8E74FEA54
:1007300013235BE03CF07F4C54D10B784FEA1265F9
:1007400054E04FEA126503F0FF034FE04FEA024521
:10075000A2F1013C4FEA15452CEA020CB5EB134F10
:1007600018D11CF0803C08BF51F8043B07D185EA42
:100770000205B5EB034F09D150F8042BE6E75FEA19
:100780000C4C2FD10B884FEA12452FE04FEA034360
:100790004FEA12454FEA134328E000BF02F0FF057D
:1007A000B5EB136FA2F1013C2CEA020C0DD11CF049
:1007B000803C08BF51F8043B0AD185EA0205B5EB3D
:1007C000032F0AD150F8042BE8E74FEA13630DE03A
:1007D00012F0FF0F06D051F8043B4FEA122523F028
:1007E0007F4303E04FF0000020BC704705F0FF029C
:1007F00003F0FF00012828BF904204BF2D0A1B0A06
:10080000F4D0A2EB000020BC704700BF844641EA50
:10081000000313F0030349D1403A23D30B6803606C
:100820004B6843608B688360CB68C3600B6903616E
:100830004B6943618B698361CB69C3610B6A036256
:100840004B6A43628B6A8362CB6AC3620B6B03633E
:100850004B6B43638B6B8363CB6BC3634030403123
:10086000403ADBD230320BD30B6803604B684360F5
:100870008B688360CB68C36010301031103AF3D2BC
:100880000C3205D351F8043B40F8043B043AF9D24A
:10089000043208D0D2071CBF11F8013B00F8013B1D
:1008A00001D30B8803806046704700BF082A13D32A
:1008B0008B07B1D010F00303AED0C3F10403D21AFA
:1008C000DB071CBF11F8013B00F8013BA4D331F852
:1008D000023B20F8023B9FE7043AD9D3013A11F8D2
:1008E000013B00F8013BF9D20B7803704B78437061
:1008F0008B7883706046704781F0004102E000BF52
:1009000083F0004330B54FEA41044FEA430594EACF
:10091000050F08BF90EA020F1FBF54EA000C55EA0A
:10092000020C7FEA645C7FEA655C00F0E2804FEADB
:100930005454D4EB5555B8BF6D420CDD2C4480EABD
:10094000020281EA030382EA000083EA010180EAED
:10095000020281EA0303362D88BF30BD11F0004F3B
:100960004FEA01314FF4801C4CEA113102D0404271
:1009700061EB410113F0004F4FEA03334CEA1333AC
:1009800002D0524263EB430394EA050F00F0A780C4
:10099000A4F10104D5F1200E0DDB02FA0EFC22FABF
:1009A00005F2801841F1000103FA0EF2801843FAB3
:1009B00005F359410EE0A5F120050EF1200E012AA4
:1009C00003FA0EFC28BF4CF0020C43FA05F3C018E2
:1009D00051EBE37101F0004507D54FF0000EDCF15B
:1009E000000C7EEB00006EEB0101B1F5801F1BD304
:1009F000B1F5001F0CD349085FEA30004FEA3C0C08
:100A000004F101044FEA445212F5800F80F09A80FD
:100A1000BCF1004F08BF5FEA500C50F1000041EB01
:100A2000045141EA050130BD5FEA4C0C404141EB05
:100A30000101013C28BFB1F5801FE9D291F0000F00
:100A400004BF01460020B1FA81F308BF2033A3F1AF
:100A50000B03B3F120020CDA0C3208DD02F1140CA6
:100A6000C2F10C0201FA0CF021FA02F10CE002F1E1
:100A70001402D8BFC2F1200C01FA02F120FA0CFCDA
:100A8000DCBF41EA0C019040E41AA2BF01EB045123
:100A9000294330BD6FEA04041F3C1CDA0C340EDC21
:100AA00004F11404C4F1200220FA04F001FA02F364
:100AB00040EA030021FA04F345EA030130BDC4F122
:100AC0000C04C4F1200220FA02F001FA04F340EA17
:100AD0000300294630BD21FA04F0294630BD94F0C8
:100AE000000F83F4801306BF81F480110134013DAF
:100AF0004EE77FEA645C18BF7FEA655C29D094EA20
:100B0000050F08BF90EA020F05D054EA000C04BF9D
:100B10001946104630BD91EA030F1EBF0021002088
:100B200030BD5FEA545C05D14000494128BF41F027
:100B3000004130BD14F580043CBF01F5801130BD8B
:100B400001F0004545F0FE4141F470014FF0000016
:100B500030BD7FEA645C1ABF194610467FEA655CC7
:100B60001CBF0B46024650EA013406BF52EA033569
:100B700091EA030F41F4002130BD00BF90F0000F57
:100B800004BF0021704730B54FF4806404F1320493
:100B90004FF000054FF0000150E700BF90F0000F4C
:100BA00004BF0021704730B54FF4806404F1320473
:100BB00010F0004548BF40424FF000013EE700BF43
:100BC00042004FEAE2014FEA31014FEA02701FBFD3
:100BD00012F07F4393F07F4F81F06051704732F005
:100BE0007F4208BF704793F07F4F04BF41F400215C
:100BF000704730B54FF4607401F0004521F00041BA
:100C00001CE700BF50EA010208BF704730B54FF043
:100C100000050AE050EA010208BF704730B511F044
:100C2000004502D5404261EB41014FF4806404F17C
:100C300032045FEA915C3FF4D8AE4FF003025FEA02
:100C4000DC0C18BF03325FEADC0C18BF033202EB86
:100C5000DC02C2F1200300FA03FC20FA02F001FAE0
:100C600003FE40EA0E0021FA02F11444BDE600BF83
:100C700070B54FF0FF0C4CF4E06C1CEA11541DBF32
:100C80001CEA135594EA0C0F95EA0C0F00F0DEF8FD
:100C90002C4481EA030621EA4C5123EA4C5350EAE2
:100CA000013518BF52EA033541F4801143F4801333
:100CB00038D0A0FB02CE4FF00005E1FB02E506F0C4
:100CC0000042E0FB03E54FF00006E1FB03569CF019
:100CD000000F18BF4EF0010EA4F1FF04B6F5007F1F
:100CE00064F5407404D25FEA4E0E6D4146EB060691
:100CF00042EAC62141EA55514FEAC52040EA5E501A
:100D00004FEACE2EB4F1FD0C88BFBCF5E06F1ED8C3
:100D1000BEF1004F08BF5FEA500E50F1000041EBFA
:100D2000045170BD06F0004646EA010140EA0200A7
:100D300081EA0301B4EB5C04C2BFD4EB0C0541EAC9
:100D4000045170BD41F480114FF0000E013C00F3DE
:100D5000AB8014F1360FDEBF002001F0004170BD02
:100D6000C4F10004203C35DA0C341BDC04F114041B
:100D7000C4F1200500FA05F320FA04F001FA05F2A7
:100D800040EA020001F0004221F0004110EBD37074
:100D900021FA04F642EB06015EEA430E08BF20EAA0
:100DA000D37070BDC4F10C04C4F1200500FA04F343
:100DB00020FA05F001FA04F240EA020001F00041D5
:100DC00010EBD37041F100015EEA430E08BF20EA48
:100DD000D37070BDC4F1200500FA05F24EEA020E90
:100DE00020FA04F301FA05F243EA020321FA04F0BF
:100DF00001F0004121FA04F220EA020000EBD37076
:100E00005EEA430E08BF20EAD37070BD94F0000F75
:100E10000FD101F00046400041EB010111F4801FA9
:100E200008BF013CF7D041EA060195F0000F18BF5A
:100E3000704703F00046520043EB030313F4801F96
:100E400008BF013DF7D043EA0603704794EA0C0F50
:100E50000CEA135518BF95EA0C0F0CD050EA410666
:100E600018BF52EA4306D1D181EA030101F00041E3
:100E70004FF0000070BD50EA410606BF104619460B
:100E800052EA430619D094EA0C0F02D150EA013617
:100E900013D195EA0C0F05D152EA03361CBF104658
:100EA00019460AD181EA030101F0004141F0FE41F7
:100EB00041F470014FF0000070BD41F0FE4141F47B
:100EC000780170BD70B54FF0FF0C4CF4E06C1CEA7B
:100ED00011541DBF1CEA135594EA0C0F95EA0C0F30
:100EE00000F0A7F8A4EB050481EA030E52EA0335EB
:100EF0004FEA013100F088804FEA03334FF080550C
:100F000045EA131343EA12634FEA022245EA111538
:100F100045EA10654FEA00260EF000419D4208BFE9
:100F2000964244F1FD0404F5407402D25B084FEA96
:100F30003202B61A65EB03055B084FEA32024FF442
:100F400080104FF4002CB6EB020E75EB030E22BF9F
:100F5000B61A754640EA0C005B084FEA3202B6EB5F
:100F6000020E75EB030E22BFB61A754640EA5C000E
:100F70005B084FEA3202B6EB020E75EB030E22BF9E
:100F8000B61A754640EA9C005B084FEA3202B6EB9F
:100F9000020E75EB030E22BFB61A754640EADC005E
:100FA00055EA060E18D04FEA051545EA16754FEAC0
:100FB00006164FEAC30343EA52734FEAC2025FEADE
:100FC0001C1CC0D111F4801F0BD141EA00014FF06D
:100FD00000004FF0004CB6E711F4801F04BF01433E
:100FE0000020B4F1FD0C88BFBCF5E06F3FF6AFAE5A
:100FF000B5EB030C04BFB6EB020C5FEA500C50F1EA
:10100000000041EB045170BD0EF0004E4EEA11316C
:1010100014EB5C04C2BFD4EB0C0541EA045170BD73
:1010200041F480114FF0000E013C90E645EA060EB7
:101030008DE60CEA135594EA0C0F08BF95EA0C0FE5
:101040003FF43BAF94EA0C0F0AD150EA01347FF42D
:1010500034AF95EA0C0F7FF425AF104619462CE704
:1010600095EA0C0F06D152EA03353FF4FDAE104667
:10107000194622E750EA410618BF52EA43067FF4B8
:10108000C5AE50EA41047FF40DAF52EA43057FF448
:10109000EBAE12E74FF0FF3C06E000BF4FF0010C53
:1010A00002E000BF4FF0010C4DF804CD4FEA410CB7
:1010B0007FEA6C5C4FEA430C18BF7FEA6C5C1BD084
:1010C00001B050EA410C0CBF52EA430C91EA030F05
:1010D00002BF90EA020F0020704710F1000F91EA62
:1010E000030F58BF994208BF90422CBFD8176FEA30
:1010F000E37040F0010070474FEA410C7FEA6C5CFE
:1011000002D150EA013C07D14FEA430C7FEA6C5C04
:10111000D6D152EA033CD3D05DF8040B704700BF30
:101120008446104662468C461946634600E000BF7E
:1011300001B5FFF7B7FF002848BF10F1000F01BD50
:101140004DF808EDFFF7F4FF0CBF012000205DF81B
:1011500008FB00BF4DF808EDFFF7EAFF34BF0120A0
:1011600000205DF808FB00BF4DF808EDFFF7E0FF39
:1011700094BF012000205DF808FB00BF4DF808ED8A
:10118000FFF7CEFF94BF012000205DF808FB00BFF1
:101190004DF808EDFFF7C4FF34BF012000205DF8D3
:1011A00008FB00BF4FEA410C7FEA6C5C02D150EAB9
:1011B000013C0AD14FEA430C7FEA6C5C02D152EA4F
:1011C000033C02D14FF0000070474FF00100704720
:1011D0004FEA410212F5001215D211D56FF478735F
:1011E000B3EB625212D94FEAC12343F0004343EA02
:1011F000505311F0004F23FA02F018BF40427047DD
:101200004FF00000704750EA013005D111F0004066
:1012100008BF6FF0004070474FF00000704700BFFC
:101220000348044B834202D0034B03B11847704775
:10123000C8060020C8060020000000000548064B34
:101240001B1AD90F01EBA301491002D0034B03B1C4
:1012500018477047C8060020C8060020000000009C
:1012600010B5064C237843B9FFF7DAFF044B13B1EE
:101270000448AFF300800123237010BDC80600208E
:10128000000000008C3B010808B5054B1BB1054967
:101290000548AFF30080BDE80840FFF7CFBF00BFAF
:1012A00000000000CC0600208C3B010808B500F0CF
:1012B0009FF90368DB69984708BD08B500F098F905
:1012C00003681B6A984708BD10B5044600F090F902
:1012D00003681B6B2146984710BDF8B504460D46C0
:1012E000164600F085F903689F6B33462A4621466F
:1012F000B847F8BDF8B504460D46164600F078F933
:101300000368DF6B33462A462146B847F8BDF8B577
:1013100004460D46164600F06BF903689F6C334691
:101320002A462146B847F8BDF8B504460D4616468C
:1013300000F05EF90368DF6C33462A462146B84761
:10134000F8BD000010B5A42004F0E6FB04460A4BEB
:1013500003608023037140234371084B83600021A5
:101360008181074B40F8103B94220DF077F920461D
:1013700000F0F2F910BD00BF203C010800007F43DF
:10138000583D010808B5FFF7DDFF08BD70B582B014
:1013900004460E46551A01950F2D0DD800942A4685
:1013A0003146206804F084FD00220092019B6360B6
:1013B0002168CA5402B070BD002201A904F048FDA2
:1013C0002060019BA360E9E738B500F108030360E2
:1013D00069B104460D4608460DF00AFB4FF00003C4
:1013E0002A1829462046FFF7D1FF204638BD01487C
:1013F00004F0FEFCA83B010830B58FB025E068463C
:1014000004F04EFD0DAA1E4907A8FFF7DDFF07AA4D
:101410004FF083410020FFF76DFF07A804F040FD67
:10142000184D00242A4621464FF08040FFF77CFFEC
:101430002A4615492046FFF76AFF144A4FF08441B7
:101440002046FFF764FFFFF731FFFFF736FF01206B
:10145000FFF73AFF06AA0E496846FFF7B5FF0020DE
:101460006A460146FFF739FFC9E7684604F018FDF0
:1014700003F0D8FD07A804F013FD03F0D3FD00BF6F
:10148000E03B010800003C4200000C4200004041EB
:10149000DC3B010800B583B00A4B5A6942F00102F7
:1014A0005A615B6903F001030193019B002211461D
:1014B0000F2002F011FC0F2002F01EFC03B05DF8BB
:1014C00004FB00BF00100240F0B589B00024049472
:1014D000059406940794274B9A6942F020029A617A
:1014E0009A6902F020020192019A9A6942F004027C
:1014F0009A619A6902F004020292029A9A6942F091
:1015000008029A619B6903F008030393039B1A4D39
:1015100022460421284602F095FE01221821284681
:1015200002F090FE154F22464FF48051384602F0EB
:1015300089FE042304930124059402260696079647
:1015400004A9284602F070FD18230493059406941C
:101550000323079304A9284602F066FD4FF4805345
:10156000049305940694079604A9384602F05CFD9E
:1015700009B0F0BD0010024000080140000C01401D
:101580007047002070470020704700207047704768
:1015900070477047002070470020704770477047C1
:1015A0007047704770477047704770477047704783
:1015B000704770477047704700207047704770470A
:1015C000704770477047002070477047014B0360B9
:1015D000704700BF203C010810B50446034B036070
:1015E000102103F01DFD204610BD00BF203C010866
:1015F000014B1868704700BF0007002008B5FFF7CF
:10160000F7FF0368DB6A984708BD10B50446FFF78B
:10161000EFFF0368D3F884302146984710BD10B51A
:101620000024012C06DCE0B2FFF7EFFF034610B9FF
:101630000134F6E70023184610BD08B5FFF7D8FFC0
:101640000368D3F88830984708BD000010B5304BC8
:101650001B78022B0CD804465AB21ABB3BB9FFF7D1
:10166000ECFF78B900232B4A13702B4A137010BD7E
:10167000032BFCD1FFF7E1FF0028F8D1244B002217
:101680001A70F4E70020FFF7C0FF10B1204B0122D1
:101690001A700120FFF7B9FF0028E3D01C4B02228B
:1016A0001A70DFE7FFF7C9FF28B31B4B1B7813B98C
:1016B000194B01221A70174A13780133DBB21370E9
:1016C000642BD4D90020FFF7A0FF18B102232373A5
:1016D000002363730120FFF798FF18B1022363739F
:1016E0000023237300230B4A13700B4A1370084B1B
:1016F00003221A70BBE7084B1B781BB1044B032273
:101700001A70B4E70023024A137063732373AEE7C1
:10171000E4060020E6060020E506002010B5044699
:10172000FFF78BFF70B10023012B09D8E218127B61
:10173000012A04D0022A09D00133DBB2F4E713B93D
:101740000023A38110BD012BFAD0F5E7002BF7D0C1
:10175000012BF5D0F0E7000040B110B50446036856
:10176000DB689847024B1C60012010BD00207047C9
:101770000007002010B504460068A168091A08B1E6
:1017800003F04EFC204610BD70B50646046845685F
:1017900003E0204604F084FB1834A542F9D130461A
:1017A000FFF7E8FF304670BD10B582B0044601AACD
:1017B0000249FFF709FE204602B010BDE43B0108D4
:1017C00030B585B08446019144680368E31ADB10A4
:1017D000114803FB00F0114D2D1A8D4213D30390D5
:1017E000814213D803AA12681044DCF80030E41ACE
:1017F000E410094B03FB04F4A04209D3074B9842C1
:1018000008D805B030BD104604F00AFB01AAEAE78B
:101810000248F6E70148F4E7ABAAAAAA55555505D0
:1018200008B5084B994205D801EB4101C80004F006
:1018300073F908BD044B994201D904F0C9FA04F0C8
:10184000B7FA00BF55555505AAAAAA0A70B50446AD
:101850000E46154608E02146284604F035FB204692
:1018600004F01EFB18341835B442F4D1284670BD7C
:101870002DE9F84F04460F469246264A0121FFF70C
:101880009FFFD4F80080D4F804B0A7EB0809054600
:1018900058B1002201462046FFF7C2FF0646B14478
:1018A0005146484604F05CFB01E00026F7E723467A
:1018B000324639464046FFF7C9FF234600F1180279
:1018C00059463846FFF7C2FF0746A168A1EB080159
:1018D000B8F1000F02D0404603F0A2FB266067601B
:1018E00005EB450506EBC505A560BDE8F88F03F0DF
:1018F0005FFC46B9484604F0D3FA04F093F803F0CD
:1019000097FC03F08FFB182105FB01F1304603F033
:1019100087FBF2E7EC3B010810B504464068A3687A
:10192000984205D004F01CFB63681833636010BD57
:101930000A4601462046FFF79BFFF8E738B50C46FC
:101940002F4B1B68BFF35B8F13F0010F11D02146A3
:101950002C48FFF7E1FFFFF7B0FC0220FFF7B4FCD3
:10196000294B1B68BFF35B8F13F0010F13D00024CA
:1019700030E0234804F08EF80028E8D02148002306
:10198000036043608360214A214903F0C5FA1C4883
:1019900004F0A0F8DBE71C4804F07CF80028E6D04F
:1019A000FFF72CFE1B4B1870174804F093F8DEE786
:1019B000184B187800FB044004EB440305EBC30507
:1019C0000130FEF75FFC01462A460020FFF785FC48
:1019D0000134E4B20B4A536815685B1BDB100E49F7
:1019E00001FB03F39C42E3D3FFF760FC0120FFF708
:1019F0006BFC38BD044804F069F803F013FB00BF2A
:101A0000F0060020F4060020E80600200000002078
:101A100089170008EC060020ABAAAAAA70477047F5
:101A20007047704708B502F0D9F808BD00B591B00D
:101A30002822002106A80CF011FE00230193029336
:101A4000039304930593012206924FF48033079386
:101A50000A9202220D920E934FF4E0130F9306A800
:101A600002F00CFC80B90F230193022102910023A4
:101A700003934FF480620492059301A802F036FEAE
:101A800028B911B05DF804FB01F02CFFEBE701F081
:101A900029FFF6E708B5FFF717FD08BD704708B541
:101AA00001F068FF08BD08B5FFF7F4FC08BD08B5F4
:101AB000084602F0B7F808BD08B502F0ADF808BD59
:101AC0002DE9F04F83B007460E4691461D46DDF8DE
:101AD000308090F892A0CB18541CA4B200949BB212
:101AE00000F0FFFF78B3BAFA8AFB4FEA5B1B0124D0
:101AF00014E087F892A00023009301234A46314660
:101B0000384600F040FF0136B6B2640014F0FF041E
:101B100002D108F101080124013DADB28DB198F860
:101B200000302342E5D197F89130002BEBD187F8B4
:101B300092B0009301234A463146384600F023FF15
:101B4000E1E787F892A003B0BDE8F08F2DE9F047F8
:101B500082B08246884614461F46BDF828500B9E28
:101B600003F10709C9F3CC0903EB010C53199BB22C
:101B700000931FFA8CF300F0B4FF60B90DE00096FB
:101B80003B46224641465046FFF79AFF4E440134F9
:101B9000A4B2013DADB2002DF1D102B0BDE8F08795
:101BA0002DE9F04182B080460F4614461E46BDF82E
:101BB000205001EB030C53199BB200931FFA8CF3D6
:101BC00000F08FFF60B90DE00022009233462246FC
:101BD0003946404600F0D7FE0134A4B2013DADB213
:101BE000002DF1D102B0BDE8F0812DE9F04782B0BF
:101BF00080460D4614461E46BDF82890CF18BFB249
:101C000002EB09039BB200933B4600F06AFF10B958
:101C100002B0BDE8F08700230093334622462946F0
:101C2000404600F0B0FEB9F1010FF1D9A9F1020967
:101C30001FFA89F90134A4B2B9F1000F08D10023C9
:101C40000093334622462946404600F09CFEDFE7DB
:101C50004FF0010ACDF800A04B46224629464046E7
:101C600000F091FE791ECDF800A04B46224689B2C5
:101C7000404600F088FEA1441FFA89F4DFE72DE911
:101C8000F04F87B080460C469246BDF84060BDF8E4
:101C90004470039104931C44A4B29519ADB200950D
:101CA000234600F01EFF10B907B0BDE8F08F039A7D
:101CB00002EB07091FFA89F90AEB070B1FFA8BFBE6
:101CC000E41BA4B2013CA4B2ED1BADB2013DADB228
:101CD000022300933B465A464946404600F074FAB8
:101CE000012300933B465A462146404600F06CFAD9
:101CF000042300933B462A464946404600F064FAD6
:101D0000082300933B462A462146404600F05CFAF1
:101D1000049BDB1B9BB2DB1B9BB209F101091FFA81
:101D200089F90BF1010B1FFA8BFB022B0FD8F61B65
:101D3000B6B2F61BB6B2022EB6D9023EB6B20096C5
:101D4000049B5A4603994046FFF72AFFACE7023B43
:101D50009BB27C1CA4B2009405935246494640466F
:101D6000FFF71EFF0094059B2A4649464046FFF7B1
:101D700017FFDCE72DE9F04F85B007460C4690468B
:101D8000BDF838B0BDF83C60029103931C44A4B286
:101D900002EB0B05ADB20095234600F0A2FE10B990
:101DA00005B0BDE8F08F029A02EB060A1FFA8AFA24
:101DB00008EB06091FFA89F9A41BA4B2013CA4B2DE
:101DC000AD1BADB2013DADB20223009333464A468E
:101DD0005146384600F0D4F90123009333464A4671
:101DE0002146384600F0CCF90423009333462A46B6
:101DF0005146384600F0C4F90823009333462A467A
:101E00002146384600F0BCF9039B9B1B9BB29B1BF1
:101E10009BB2ABEB0604A4B2A41BA4B20AF1010A64
:101E20001FFA8AFA09F101091FFA89F9022B16D85B
:101E3000022CB5D9023CA4B2039B5D1EADB2234671
:101E40004A46029E3146384600F00AFE3146294491
:101E500023464A4689B2384600F002FEA0E7023B1C
:101E60009DB20BF1FF3B1FFA8BFB2B4642465146BE
:101E7000384600F0EDFD08EB0B022B4692B25146BE
:101E8000384600F0E5FDD3E710B582B003681B7C4F
:101E9000446B03FB01F1C90089B20C44009400219A
:101EA00001F002F902B010BD2DE9F041064690F8AC
:101EB000387090F83950036893F8118000242A464E
:101EC00021463046FFF7E0FF0134E4B20135EDB2C0
:101ED000A74201D9A845F2D8BDE8F08108B503684A
:101EE0001B7C90F8382003FB02F2D2000021406BEB
:101EF0000CF0B4FB08BD10B50446FFF7D5FF204633
:101F000001F0F8F810BD2DE9F84380460F469146E0
:101F10001C46BDF820609DF8245015F0010F0AD131
:101F200015F0020F16D115F0080F24D115F0040F8B
:101F300032D1BDE8F883B21A591892B289B200F0D2
:101F400097FDF21B04EB090192B289B2404600F002
:101F50008FFDE5E7A6EB0902E11B92B289B240468C
:101F600000F086FDF21BA4EB090192B289B2404653
:101F700000F07EFDD7E706EB0902E11992B289B2C3
:101F8000404600F075FDBA1904EB090192B289B21E
:101F9000404600F06DFDC9E706EB0902E11B92B275
:101FA00089B2404600F064FDBA19A4EB090192B26F
:101FB00089B2404600F05CFDBBE72DE9F04F85B0EB
:101FC0000390894692461E469DF838B0C3F101043D
:101FD00024B2C3EBC3384FEA48080FFA88F8CDF8AB
:101FE00004B000920B4632460021FFF78CFF00251B
:101FF00001271AE0013EB6B208F102081FFA88F381
:102000000FFA88F823441CB20135ADB20237BBB2D7
:102010003FB223441CB2CDF804B0CDF800A04B462B
:10202000324629460398FFF76EFFB54202D2002CD4
:10203000E0DAE9E705B0BDE8F08F2DE9F843804626
:102040000C4617461D46BDF820909DF8246016F0FA
:10205000010F0AD116F0020F1BD116F0080F2DD177
:1020600016F0040F3BD1BDE8F883531CA9EB020224
:1020700069189BB292B289B200F0F2FC631CA9EB22
:102080000402E9199BB292B289B2404600F0E8FC22
:10209000E0E77B1CA9EB0702291B9BB292B289B235
:1020A000404600F0DDFC631CA9EB0402E91B9BB277
:1020B00092B289B2404600F0D3FCCEE77B1C2919CE
:1020C0009BB24A4689B2404600F0CAFC631CE9193B
:1020D0009BB24A4689B2404600F0C2FCC0E77B1C76
:1020E000291B9BB24A4689B2404600F0B9FC631CEA
:1020F000E91B9BB24A4689B2404600F0B1FCB2E708
:102100002DE9F04F85B00390894692461E469DF812
:1021100038B0C3F1010424B2C3EBC3384FEA480816
:102120000FFA88F8CDF804B000920B463246002131
:10213000FFF783FF002501271AE0013EB6B208F140
:1021400002081FFA88F30FFA88F823441CB20135FD
:10215000ADB20237BBB23FB223441CB2CDF804B0DB
:10216000CDF800A04B46324629460398FFF765FF9D
:10217000B54202D2002CE0DAE9E705B0BDE8F08F05
:102180002DE9F04182B080460E4617461D46CB1819
:102190009BB2AC18A4B20133521B491B0134A4B248
:1021A00000949BB292B289B200F09BFC10B902B0CD
:1021B000BDE8F0819DF8203000932B463A46314629
:1021C0004046FFF7FAFEF2E72DE9F04182B0804683
:1021D0000E4617461D46CB189BB2AC18A4B201336D
:1021E000521B491B0134A4B200949BB292B289B233
:1021F00000F077FC10B902B0BDE8F0819DF8203006
:1022000000932B463A4631464046FFF779FFF2E706
:1022100008230370004870470407002030B585B0DC
:1022200004460D4600931346084A094900F084FF0E
:102230000DF10F00FFF7ECFF01460095054B9DF8EF
:102240000F20204600F045FD05B030BDBB2E000834
:10225000FD2F00080F2B0008405C70474218435CBC
:10226000507800EB032080B270470020704738B5EB
:1022700004460D4600212846FFF7EEFF207001219D
:102280002846FFF7E9FF607002212846FFF7E4FFC8
:10229000A07003212846FFF7DFFFE07004212846E5
:1022A000FFF7DAFF207105212846FFF7D5FF60719F
:1022B00006212846FFF7D0FFA07107212846FFF727
:1022C000CBFFE07108212846FFF7C6FF20720921E5
:1022D0002846FFF7C1FF60720A212846FFF7BCFFBE
:1022E000A0720B212846FFF7B7FFE0720C212846A9
:1022F000FFF7B2FF20730D212846FFF7ADFF607393
:102300000E212846FFF7A8FFA0730F212846FFF7EC
:10231000A3FFE07310212846FFF79EFF20741121D0
:102320002846FFF79BFF608213212846FFF796FFA0
:10233000A08215212846FFF791FFE08238BD30B515
:10234000024690F80CE00468207840FA0EF05FFA3C
:1023500080FC0EEB0103DBB2072B0FD9CEF1080E88
:102360005FFA8EFE651C156094F801C00CFA0EFC35
:102370004CEA000C5FFA8CFC083BDBB24FF0FF30FC
:10238000884013732CEA000030BD38B5044600F1D4
:1023900060050166002380F86C3090F878102846BC
:1023A000FFF7CDFF84F86A0094F879102846FFF70C
:1023B000C6FF84F86B0094F8923084F86E30B3FA5C
:1023C00083F35B0984F86F3038BD10B50C46FFF716
:1023D000B6FF013CE4B20123A340C01A40B210BDD5
:1023E000012B08D0022B09D013B1401A80B27047DC
:1023F000104480B27047084480B27047801A80B29F
:102400007047012B08D0022B09D013B1104480B2C1
:102410007047084480B27047801A80B27047401AF3
:1024200080B270472DE9F04F89B005468A46079281
:1024300090F968305FFA83FB90F96920D3B2039377
:1024400019E0CDF814A01FE095F86E3085F89230B1
:102450000097059B0699284600F095FAB2453CD3B3
:10246000ABEB040454445FFA84FA039B0133DBB200
:1024700003934FF0000B95F96A40E4B2A4EB0B060E
:10248000F6B2B245DDD30596B5F866904FFA8BF1FA
:102490009DF90C8095F870703B4642460491B5F862
:1024A0006400FFF7AEFF06903B464246049948465B
:1024B000FFF796FF0246079B002BC5D195F86D30BC
:1024C000002BCBD195F86F3085F892300097059BA3
:1024D0000699284600F057FAC0E70AEB0B0385F887
:1024E000683085F8698009B0BDE8F08F2DE9F04FBC
:1024F00085B0044600F16005FFF747FF94F96B7063
:1025000094F87A102846FFF760FF804694F87B1015
:102510002846FFF75AFF064694F87C102846FFF736
:1025200054FF039094F96A90B9F1000F55DD3E44D1
:10253000F6B2764276B294F870B05B4632464146C7
:10254000B4F86400FFF75DFF8246A4F864005B46C0
:1025500032464146B4F86600FFF742FF0246A4F84F
:102560006600BBF1030F68D8DFE80BF0023B495B64
:102570001FFA89F353449BB2384480B2009051460D
:10258000204600F0AEFA40B3002384F8683084F8A7
:10259000693094F876102846FFF7D1FE804694F80B
:1025A00077102846FFF7CBFE06460022414620461C
:1025B000FFF738FF012231462046FFF733FF0121A4
:1025C0002846FFF7BCFE0028EFD194F96930BB42E2
:1025D000DFDB94F86E3084F89230039805B0BDE8E4
:1025E000F08FAAEB070189B201310AF101039BB216
:1025F0001FFA89F0104480B21FFA81FABEE71FFA71
:1026000089F1AAEB010189B201310AF101039BB200
:10261000C61BB6B20136013080B2B2B21FFA81FADF
:10262000ACE70AEB07039BB21FFA89F1411A89B2A2
:102630000131013080B28AB2A0E753469EE770B5FF
:102640000E46846D1734FF2913D8602903D9B0F8DA
:1026500088301C4406E0402904D9B0F886301C4478
:1026600000E01C44637803B32278B242F9D1A01C85
:102670001CE0B0F88A301C44254600212846FFF7AC
:10268000EDFD044402212846FFF7E8FD04358642AB
:10269000F3D801E0A3781C442278637853EA02233C
:1026A00005D09E42F6D1E01C00E0002070BD002065
:1026B000FCE710B50446A0F86410A0F8662019469F
:1026C000FFF7BDFF28B101462046FFF70FFF80B29C
:1026D00010BD0020FCE738B50446FFF7B0FFB8B1E5
:1026E00001462046FFF751FE04F1600594F87A1088
:1026F0002846FFF76AFE84F8900094F87B1028467D
:10270000FFF763FE94F87C102846FFF75EFE38BDA5
:102710000020FCE72DE9F04104460D46002680F834
:102720006A6000F050FB6FF03F08374601E03E441E
:10273000B6B263682978204698474FF6FF739842EF
:102740000FD001354FF6FE739842F2D00146204675
:10275000FFF7C1FF87B218F1400FE8D194F99080DC
:10276000E5E794F96A307BB1F71BBFB29BB23B44FB
:102770009BB294F99060B6B21E44B6B2B8F1000FA5
:1027800002DDB0441FFA88F63046BDE8F08180F8DB
:102790006D107047F8B504460D4616461F4690F872
:1027A0007030032B07D8DFE803F0020D1217C36D5A
:1027B0009847304486B23B46324629462046FFF7CA
:1027C00078FFF8BDC36D9847281A85B2F3E7C36D4B
:1027D0009847301A86B2EEE7C36D9847284485B211
:1027E000E9E700002DE9F04104460F4616461D4674
:1027F00000F0E9FA4FF0000804E00744BFB240449B
:102800001FFA80F863682978204698474FF6FF72D0
:10281000904222D001354FF6FE729042F2D003462C
:10282000324639462046FFF7B5FF94F87030032B47
:10283000E5D801A252F823F0FB2700084928000838
:102840004F280008552800080644B6B2D7E73F1ABB
:10285000BFB2D4E7361AB6B2D1E74046BDE8F08140
:1028600010B5024C4460FFF7BDFF10BD172D0008E6
:1028700010B5024C4460FFF7B5FF10BD2D2D0008C8
:10288000836D73B390F9812080F88E2090F98230A7
:1028900080F88F3090F88D1019B3012914D000B54D
:1028A00090F97E1090F980C001EB0C0E724505DAAC
:1028B000C9B25FFA8CF2114480F88E10634501DDD5
:1028C00080F88FC05DF804FB90F983108A4201DA2A
:1028D00080F88E1090F98420934202DD80F88F20DA
:1028E00070477047014BC365704700BF6B220008FB
:1028F000836D8B4209D010B5044681657430FFF7B3
:10290000B6FC2046FFF7BCFF10BD704708B5024B70
:102910004360FFF7FFFE08BD172D000880F8701018
:10292000704700B5B0F800E0B1F800C0F4441FFAF9
:102930008CFCE64505D99E4513D203F1FF3C1FFAF6
:102940008CFC9E450FD294450FD9964500D3724614
:102950009C4500D8634602809B1A0B8001205DF8DD
:1029600004FB9646EDE70020F9E70020F7E730B5D5
:1029700083B0C48F121BC46A9DF81850009592B2A0
:10298000A04703B030BD70B584B004469DF8200068
:10299000ADF80E10ADF80C20ADF80A3094F88C307C
:1029A0005BB3BDF80A3043B3012B03D9022826D00C
:1029B00003282DD010F0010534D1B4F84C20BDF817
:1029C0000C309A4219D8B4F84E20934215D2B4F87C
:1029D0004A30B4F848200DF10A010DF10E00FFF75E
:1029E000A0FF50B1236B9E680095BDF80A30BDF87A
:1029F0000C20BDF80E102046B04704B070BD8AB25E
:102A0000D31A9BB2ADF80E300133ADF80E30D1E7DA
:102A1000BDF80C20D31A9BB2ADF80C300133ADF8E1
:102A20000C30C7E7B4F84820BDF80E309A42E4D81D
:102A3000B4F84A209342E0D2B4F84E30B4F84C20B7
:102A40000DF10A0103A8FFF76CFF0028CAD1D4E7F3
:102A500010B582B000240094FFF795FF02B010BDBE
:102A600010B582B001240094FFF78DFF02B010BDB5
:102A7000B0F84C3093420BD8B0F84E30934207D99F
:102A8000B0F848308B4203D8B0F84A308B4200D8B7
:102A9000704700B583B0002300930123FFF773FF55
:102AA00003B05DF804FB80F89210022902D90123DB
:102AB00080F8923070478A4205D2834209D89A4200
:102AC00009D901207047834207D99A4207D90120CA
:102AD0007047012070470020704700207047002099
:102AE000704770B504460D461E46BDF81030B0F86C
:102AF0004E10B0F84C00FFF7DEFF38B133462A46DF
:102B0000B4F84A10B4F84800FFF7D5FF70BD70B5AF
:102B10009DF8105002F0070E4FF0010C0CFA0EFC5D
:102B20005FFA8CFC90F89260012E1AD90024012ED5
:102B300019D022F007060268127C06FB02F292B25C
:102B40000A44416B1144DDB90A782243D2B20A70BB
:102B500082EA0C0201F8012B013B9BB2002BF3D15E
:102B600070BD6446E3E74FF0000CE2E701241BE090
:102B70006400E4B24FEA4C0C5FFA8CFC002BEFD0FF
:102B80000A782243D2B20A7082EA0C020A700EF16D
:102B90000102013B9BB212F0070EE9D1428F1144B2
:102BA00090F89220012AE1D9012AE7D04FF0010CD8
:102BB000E4E710B5016890F83830DA0082870A7CC3
:102BC000D200428790F839E04FEACE02C28703EB89
:102BD0000E0491F811C0644503DDACEB0E0C1FFA36
:102BE0008CF3DB009BB2A0F84020A0F842201A44EE
:102BF000A0F842208B8AA0F84430CB8AA0F8463057
:102C000010BD08B5FFF7D5FF08BD10B582B004466A
:102C1000B0F856300093B0F85230B0F85420B0F805
:102C20005010FFF75EFF20B9002384F88C3002B00B
:102C300010BD012384F88C30B4F84820B4F850302B
:102C40009A4201D2A4F84830B4F84A20B4F852307D
:102C50009A4201D9A4F84A30B4F84C20B4F8543060
:102C60009A4201D2A4F84C30B4F84E20B4F8563051
:102C70009A42DCD9A4F84E30D9E708B50022A0F872
:102C80004820B0F84420A0F84A20B0F84020A0F82E
:102C90004C20B0F84220A0F84E20FFF7B6FF08BD48
:102CA00010B582B09DF810400094FFF760FE02B0AE
:102CB00010BD08B50022A0F85020A0F854204FF60F
:102CC000FF72A0F85220A0F85620036B5B6898476B
:102CD00008BD70B50446049E00258565C362416346
:102CE00080F8382080F8395080F86D5080F8915085
:102CF00080F88D50012380F8923080F8933006637D
:102D0000336898472046FFF7D4FF2046FFF7EAFDD7
:102D100084F8705070BD084611B10A2903D070477D
:102D20004FF6FF7070474FF6FF70704702460B4634
:102D300000293FD00A2940D090F8261061BBFB2B18
:102D400009D8F72B10D8EF2B14D8DF2B18D8BF2BAE
:102D50001CD818467047052180F8261003F001039F
:102D600013844FF6FE707047042180F8261003F09C
:102D70000303F5E7032180F8261003F00703EFE7CC
:102D8000022180F8261003F00F03E9E7012180F803
:102D9000261003F01F03E3E70139C9B280F82610BB
:102DA000008C800180B2108403F03F03184310842C
:102DB00031B970474FF6FF7070474FF6FF7070479C
:102DC0004FF6FE70F5E7002380F82630704710B507
:102DD0000A46046900232021A04710BD10B5134600
:102DE00004690A461721A04710BD00B583B08DF8CD
:102DF00007100DF107020121FFF7F0FF03B05DF8A6
:102E000004FB10B50A46C46800231521A04710BD75
:102E100010B50A46C46800231621A04710BD10B59E
:102E20001346C4680A461721A04710BD10B5C468F0
:102E300000231A461821A04710BD10B5C46800230E
:102E40001A461921A04710BD70B582B006460D463E
:102E500016E015290CD202B070BDFE29FBD12278F4
:102E60008DF807202921304600F04BF9023507E0A4
:102E700022788DF80720F46800233046A0470235F9
:102E80002C4614F8011B1929E7D818290ED2162947
:102E9000DFD91729DFD123788DF807300DF107022C
:102EA00001213046FFF7BBFF0235E9E7F568002353
:102EB0001A463046A8472546E2E72DE9F041044688
:102EC0000D4616461F46A1F11403052B22D8DFE854
:102ED00003F018030C1518180021FFF778FF31468E
:102EE0002046FFF782FF012012E00021FFF76FFF6D
:102EF00031462046FFF779FF012009E00121FFF765
:102F000066FFD4F810803B46324629462046C0472B
:102F1000BDE8F0810020FBE7F8B5064615461C46E3
:102F20000B39042960D8DFE801F0035F0E2130007F
:102F300022B92E49FFF788FF012025E02C49FFF731
:102F400083FF012020E042B92A49FFF77DFF336863
:102F50009B7C86F82230012016E02749FFF774FF9A
:102F60003368DB7C86F8223001200DE0FFF75EFF3E
:102F700081213046FFF745FF29463046FFF748FFDD
:102F80003046FFF75AFF0120F8BDFFF74FFF637986
:102F9000DB00DBB296F822701F44FFB240213046BE
:102FA000FFF72FFF390941F010013046FFF729FFE5
:102FB00007F00F013046FFF72BFFA17941F0B00178
:102FC0003046FFF725FF2179C900226801F0F8019A
:102FD0003046FFF724FF6A1E12F0FF05F3D130469A
:102FE000FFF72BFF0120CFE70020CDE7F43C0108DD
:102FF000EC3C0108E43C0108DC3C010838B505461E
:103000000C46FFF789FF90B9092C0AD00A2C0FD182
:10301000284600F018F807492846FFF715FF012059
:1030200006E00549284600F009F8012000E00120EB
:1030300038BD00BFFC3C0108C43C010801608B7C2A
:1030400080F82230704710B5044600231A46282124
:10305000D0F814C0E04700231A4614212046D4F8C3
:103060000CC0E04701224B21204600F04AF82368BB
:103070001A792921204600F044F800224B212046ED
:1030800000F03FF823681A792921204600F039F82A
:1030900001224B21204600F034F823685A79292177
:1030A000204600F02EF810BD10B582B08DF8051046
:1030B0008DF806208DF80430049B009384686B46DD
:1030C00001220F21A04702B010BD10B58468002373
:1030D0001A460921A04710BD10B5846800231A467E
:1030E0000A21A04710BD10B50A46846800230B21B1
:1030F000A04710BD10B5846800231A461021A047D0
:1031000010BD10B544690023A04710BD00207047D2
:1031100000230360074A8260C2600261426180F856
:10312000233080F826308361FF2380F8243080F834
:10313000283070470D310008F8B504460F46164692
:103140001D46FFF7E5FFA760E6602561069B63610A
:103150002046FFF7BAFFF8BD406C704790F8480072
:1031600070470369187C704790F98E00C0B27047B1
:10317000024A0260024A0260704700BF583D0108DF
:10318000203C010838B50446A1F1140CBCF10C0F29
:1031900008D8DFE80CF0360707091A2807070707E1
:1031A00007071400002038BD1946174801F048FDF4
:1031B000154BDB8E9BB2002BFAD10120F3E71021D7
:1031C000124801F03FF80120EDE703681A78492121
:1031D000FFF797FF65692268002392782C2120462B
:1031E000A8470120DFE702680023D2782C21456937
:1031F000A84723685A7849212046FFF782FF01201B
:10320000D1E70120CFE700BF480B002000080140B4
:1032100008B5292903D0492905D0012008BD104649
:1032200000F000FDF9E70421014801F00BF8F4E794
:103230000008014008B51030FEF750FE08BD38B553
:103240000D4600F1100401212046FFF7A0FA0021ED
:103250002046FFF763FB29462046FFF749FB38BDB0
:1032600008B51030FEF747FE08BD08B509681030F4
:10327000FFF74CFBC0B208BD08B51030FFF713FCD8
:1032800008BD70B504461646084609F021F9FDF759
:10329000C3F805B2304609F01BF9FDF7BDF882B25C
:1032A000A9B204F11000FFF7E3FB70BD2DE9F8436C
:1032B0008146884617461E46002414E0404609F021
:1032C00007F9FDF7A9F805B2384609F001F9FDF74D
:1032D000A3F882B2224492B2A9B209F11000FFF71A
:1032E000C7FB0134E4B2304609F0F2F8FDF7BAF852
:1032F000C0B2A04215D9631E14F0070F0CBF012500
:10330000002513F0070F08BF45F00105A31E13F0B9
:10331000070F0CBF01230023002DE2D1002BCDD0DD
:10332000DFE7BDE8F8832DE9F84381468846174674
:103330001E46002413E0404609F0CAF8FDF76CF879
:1033400085B2384609F0C4F8FDF766F8611982B213
:1033500089B209F11000FFF78BFB0134E4B220467B
:10336000FCF790FF3146FDF72FF8B0B104F1FF3CB8
:1033700014F0070F0CBF012500251CF0070F08BF34
:1033800045F00105A31E13F0070F0CBF0123002316
:10339000002DE2D1002BCED0DFE7BDE8F883F8B5F1
:1033A000044617461E46084609F092F8FDF734F821
:1033B00005B2384609F08CF8FDF72EF8336882B272
:1033C000A9B204F11000FFF74BFAF8BDF8B50446B6
:1033D00017461E46084609F07BF8FDF71DF805B2B2
:1033E000384609F075F8FDF717F8336882B2A9B2CC
:1033F00004F11000FFF73CFAF8BDF8B50446164694
:103400001F46084609F064F8FDF706F805B2304695
:1034100009F05EF8FDF700F806B2384609F058F8F2
:10342000FCF7FAFF83B2B2B2A9B204F11000FFF7C1
:1034300017FBF8BDF8B5044616461F46084609F0C6
:1034400047F8FCF7E9FF05B2304609F041F8FCF710
:10345000E3FF06B2384609F03BF8FCF7DDFF83B224
:10346000B2B2A9B204F11000FFF7F2FAF8BDF0B55C
:1034700083B0044616461F46084609F029F8FCF7B3
:10348000CBFF05B2304609F023F8FCF7C5FF06B2C2
:10349000384609F01DF8FCF7BFFF07B2089809F09D
:1034A00017F8FCF7B9FF099B019380B20090BBB2FB
:1034B000B2B2A9B204F11000FEF748FB03B0F0BDB0
:1034C000F0B583B0044616461F46084609F000F8DA
:1034D000FCF7A2FF05B2304608F0FAFFFCF79CFFAC
:1034E00006B2384608F0F4FFFCF796FF07B20898DA
:1034F00008F0EEFFFCF790FF80B20090BBB2B2B2D2
:10350000A9B204F11000FEF74BFB03B0F0BD2DE9AA
:10351000F04182B0054617461C46084608F0D8FF21
:10352000FCF77AFF06B2384608F0D2FFFCF774FFCA
:1035300007B2204608F0CCFFFCF76EFF0FFA80F8C8
:10354000089808F0C5FFFCF767FF04B2099808F077
:10355000BFFFFCF761FF80B20190A4B200941FFA94
:1035600088F3BAB2B1B205F11000FEF788FB02B0E1
:10357000BDE8F081F0B583B0044616461F46084604
:1035800008F0A6FFFCF748FF05B2304608F0A0FFA0
:10359000FCF742FF06B2384608F09AFFFCF73CFF02
:1035A00007B2089808F094FFFCF736FF80B200904D
:1035B000BBB2B2B2A9B204F11000FEF716FB03B021
:1035C000F0BD2DE9F04182B0054617461C4608467D
:1035D00008F07EFFFCF720FF06B2384608F078FFBF
:1035E000FCF71AFF07B2204608F072FFFCF714FF41
:1035F0000FFA80F8089808F06BFFFCF70DFF04B293
:10360000099808F065FFFCF707FF80B20190A4B2AB
:1036100000941FFA88F3BAB2B1B205F11000FEF7B8
:10362000A9FB02B0BDE8F08110B50446044B03606D
:10363000044B0360A42101F0F3FC204610BD00BF41
:10364000583D0108203C010830B587B08DF80F10B7
:1036500000258DF817500E4C2A460421204600F014
:10366000F1FD2A461021204600F0ECFD4FF47A735C
:10367000009301230DF117020DF10F01054801F030
:10368000BCF901220421204600F0DCFD07B030BD6A
:1036900000080140480B002010B504468D21FFF7BB
:1036A000D3FF14212046FFF7CFFFAF212046FFF7BD
:1036B000CBFF10BD10B504468D21FFF7C5FF1021CB
:1036C0002046FFF7C1FFAE212046FFF7BDFF10BD2A
:1036D00010B586B08DF80F101AB9CBB2DB438DF858
:1036E0000F3000228DF817200D4C0421204600F0E9
:1036F000A9FD01221021204600F0A4FD4FF47A73A9
:10370000009301230DF117020DF10F01054801F09F
:1037100074F901220421204600F094FD06B010BD8A
:1037200000080140480B002038B504460D4642F021
:10373000B001FFF789FF290941F010012046FFF78A
:1037400083FF05F00F012046FFF77EFF38BDF8B577
:1037500005460E4600270BE0012231462846FFF7BA
:10376000B7FF0134E4B214F0800FF5D00137FFB297
:10377000072F06D8002239462846FFF7D5FF002438
:10378000F1E7F8BD10B504460021FFF7E0FF002285
:1037900004E00133B3F57A7FFBD30132B2F57A7FCF
:1037A00001D20023F6E7AE212046FFF74DFFD521D9
:1037B0002046FFF749FF80212046FFF745FFA8215B
:1037C0002046FFF741FF3F212046FFF73DFFD32171
:1037D0002046FFF739FF00212046FFF735FF402143
:1037E0002046FFF731FFA1212046FFF72DFFC8211A
:1037F0002046FFF729FFDA212046FFF725FF122197
:103800002046FFF721FF81212046FFF71DFFCF2132
:103810002046FFF719FFD9212046FFF715FFF121B8
:103820002046FFF711FFDB212046FFF70DFF302177
:103830002046FFF709FFA4212046FFF705FFA62138
:103840002046FFF701FF8D212046FFF7FDFE1421E2
:103850002046FFF7F9FEAF212046FFF7F5FE10BD29
:1038600010B500F110040E4B0E4A0F492046FEF72A
:10387000D5FC2046FFF730FC00212046FFF733FC43
:103880002046FEF72BFB01212046FEF780FF00219A
:103890002046FFF743F805492046FFF729F810BDF9
:1038A0001132000885310008B83C0108F03D0108DC
:1038B00010B50446FEF7B6F82046FEF7B7F82046E6
:1038C000FEF7E8F82046FEF7EEF82046FEF7E6F8A9
:1038D0002046FEF7E4F82046FFF754FF2046FFF7A6
:1038E000BFFF10BD72B6FEE700B591B028220021DF
:1038F00006A80AF0B3FE00230193029303930493F6
:103900000593012206924FF4803307934FF4003160
:1039100008910A9202220D920E934FF4E0130F9336
:1039200006A800F0ABFC80B90F230193022102919D
:10393000002303934FF480620492059301A800F0E2
:10394000D5FE20B911B05DF804FBFFF7CBFFFFF700
:10395000C9FF08B500F042F9FFF7C6FFFDF7B4FD57
:10396000FDF798FD00F006F8FDF70CFDFDF744FDAE
:10397000FEE7000008B50E480E4B03604FF482735B
:10398000436000238360C36002220261012242611E
:103990004FF400728261C3610362436283620A234F
:1039A000C36200F0CFFF00B908BDFFF79BFFFBE744
:1039B000480B00200038004010B586B00023029369
:1039C0000393049305930268214B9A4201D006B0F9
:1039D00010BD044603F5EC33DA6942F48042DA6143
:1039E000DA6902F480420092009A9A6942F0080271
:1039F0009A619B6903F008030193019B4FF42043F4
:103A00000293022303930323059302A9114800F0B4
:103A10000BFB1148114B03601023436000238360AC
:103A20008022C260036143618361C36100F09CF93D
:103A300058B9094BA3645C6200221146242000F0AF
:103A40004BF9242000F058F9C1E7FFF74BFFF0E7EE
:103A500000380040000C0140040B002058000240D8
:103A600082B00E4B9A6942F001029A619A6902F0A3
:103A700001020092009ADA6942F08052DA61DB6951
:103A800003F080530193019B054A536823F0E063E0
:103A900043F00073536002B0704700BF0010024053
:103AA00000000140FEE7FEE7FEE7FEE7FEE77047A5
:103AB0007047704708B500F0A3F808BD08B5024884
:103AC00000F010FA08BD00BF040B002008B5024842
:103AD00001F074F908BD00BF480B002001207047B9
:103AE00008B50AF0F5FE162303604FF0FF3008BD5D
:103AF00008B54FF0FF31FFF7F3FFFEE770B50C4656
:103B00001646002506E0AFF30080214601F8010BC0
:103B100001350C46B542F6DB304670BD70B50C463B
:103B20001646002504E014F8010BAFF300800135C0
:103B3000B542F8DB304670BD08B503460B4A126843
:103B400042B10A4A106803446A46934206D8074ABB
:103B5000136008BD054A06491160F2E70AF0B8FE95
:103B60000C2303604FF0FF30F3E700BFA00B0020F1
:103B7000F00E00204FF0FF3070474FF400534B60C1
:103B800000207047012070470020704770470000F8
:103B900010B504460E4B1A784FF47A73B3FBF2F368
:103BA0000C4A1068B0FBF3F000F0B4F868B90F2CC1
:103BB00001D901200AE0002221464FF0FF3000F039
:103BC0008BF8054B1C60002000E0012010BD00BFF9
:103BD00008000020040000200C00002008B5074A5F
:103BE000136843F010031360032000F063F80F2004
:103BF000FFF7CEFFFFF734FF002008BD0020024092
:103C0000034A1168034B1B780B441360704700BFD5
:103C1000A40B002008000020014B1868704700BF6B
:103C2000A40B002038B50446FFF7F6FF0546B4F1B3
:103C3000FF3F02D0044B1B781C44FFF7EDFF401BF5
:103C4000A042FAD338BD00BF08000020002808DBDE
:103C50000901C9B200F1604000F5614080F800132D
:103C6000704700F00F000901C9B2014B19547047A9
:103C700014ED00E000B500F00700C0F1070CBCF146
:103C8000040F28BF4FF0040C031D062B0FD9C31ED1
:103C90004FF0FF3E0EFA0CF021EA000199400EFAB7
:103CA00003FE22EA0E0241EA02005DF804FB002353
:103CB000EEE70000074AD36823F4E0631B041B0C03
:103CC000000200F4E060034343F0BF6343F40033B9
:103CD000D360704700ED00E010B50446054BD8688E
:103CE000C0F30220FFF7C6FF01462046FFF7AEFFF4
:103CF00010BD00BF00ED00E0002807DB00F01F0250
:103D0000400901239340024A42F82030704700BF27
:103D100000E100E00138B0F1807F0BD24FF0E023EA
:103D20005861054AF02182F823100020986107228B
:103D30001A6170470120704700ED00E030B40124A3
:103D4000056CAC40C56B6C60046863604368102B05
:103D500005D0036899600368DA6030BC7047036877
:103D60009A600368D960F8E760B310B4024601684E
:103D7000154B0B441548A0FB03031B099B00136460
:103D8000134BD363022382F82130086820F47F505C
:103D900020F03000536894682343D46823431469A7
:103DA00023435469234394692343D469234303433E
:103DB0000B6000209063012382F8213082F82000FC
:103DC00010BC704701207047F8FFFDBFCDCCCCCCB4
:103DD0000000024038B5044690F82000012832D097
:103DE000012084F8200094F82100C0B2012804D0FA
:103DF000002384F82030022038BD022084F82100FE
:103E00000020A0632568286820F001002860204673
:103E1000FFF794FFE36A5BB12268136843F00E0377
:103E200013602268136843F0010313600020E3E786
:103E30002268136823F0040313602268136843F0B8
:103E40000A031360EDE70220D6E7000008B590F8FA
:103E50002130DBB2022B03D004238363012008BD91
:103E60000268136823F00E0313600268136823F0DE
:103E7000010313600368194A934214D01432934229
:103E80001FD0143293421ED0143293421ED01432EB
:103E900093421ED01432934202D04FF0807203E05E
:103EA0004FF4801200E001220D4B5A60012380F88C
:103EB0002130002380F82030436B6BB198470020FD
:103EC000CDE71022F0E74FF48072EDE74FF4805217
:103ED000EAE74FF48032E7E70020C0E7080002403D
:103EE0000000024038B5C36B1A6804682568016C8D
:103EF00004238B40134235D015F0040F32D02368D1
:103F000013F0200F03D1236823F004032360036818
:103F1000434A934214D01432934218D0143293423D
:103F200017D01432934217D01432934217D0143260
:103F3000934202D04FF0806203E04FF4800200E031
:103F40000422384B5A60C36A03B1984738BD4022F7
:103F5000F7E74FF48062F4E74FF48042F1E74FF463
:103F60008022EEE702238B4013423CD015F0020F73
:103F700039D0236813F0200F06D1236823F00A03F9
:103F80002360012380F821300368254A934214D02E
:103F9000143293421CD0143293421BD014329342F9
:103FA0001BD0143293421BD01432934202D04FF0F4
:103FB000007203E04FF4001200E00222194B5A6035
:103FC000002380F82030836A002BBFD09847BDE7DC
:103FD0002022F3E74FF40072F0E74FF40052EDE7D0
:103FE0004FF40032EAE708238B401342AED015F0BD
:103FF000080FABD0236823F00E032360026CC16B63
:10400000012303FA02F24A60836380F8213000231F
:1040100080F82030036B002B98D0984796E700BFBC
:10402000080002400000024070B582B00024A4469F
:10403000A2E07E4DAB4210D007D97D4DAB420CD0F3
:1040400005F58035AB4208D013E0A5F58015AB42ED
:1040500003D005F57025AB4207D18B68002B55D0F6
:10406000012B4ED04261082403E0A5F58015AB4238
:10407000F3D0BEF1FF0F4BD806464FEA8C023368EF
:104080000F25954023EA050304FA02F21343336037
:104090004B6813F0805F6DD0664B9A6942F0010265
:1040A0009A619B6903F001030193019B4FEA9C0213
:1040B000951C614B53F825600CF00305AD000F23F0
:1040C000AB4026EA03065D4B984228D003F5806397
:1040D000984200F08D8003F58063984200F08A805A
:1040E00003F58063984218D0042319E0CC68C0E738
:1040F000CC680434BDE7CC680834BAE7CC680C342B
:10410000B7E702610824B4E70024B2E70424B0E76B
:10411000061DACF108029200B1E7032300E0002382
:10412000AB4033430232444D45F822304B6813F420
:10413000801F61D0424A936843EA0E0393604B6844
:1041400013F4001F5ED03E4AD36843EA0E03D360E7
:104150004B6813F4003F5BD0394A536843EA0E03BF
:1041600053604B6813F4803F58D0354A136843EAD4
:104170000E0313600CF1010C0B6833FA0CF253D0F0
:10418000012202FA0CF203EA020E32EA0303F1D131
:104190004B68122B3FF64DAF122B3FF66AAF01A5CD
:1041A00055F823F05B400008ED400008F740000898
:1041B000094100087340000873400008734000087C
:1041C0007340000873400008734000087340000803
:1041D00073400008734000087340000873400008F3
:1041E0007340000873400008F1400008FD400008DB
:1041F000012395E7022393E7114A936823EA0E030C
:1042000093609CE70E4AD36823EA0E03D3609FE7CE
:104210000B4A536823EA0E035360A2E7084A136867
:1042200023EA0E031360A5E702B070BD0000221060
:104230000000311000100240000001400008014061
:10424000000401400AB1016170470904016170472F
:1042500082B0084B1B68084AA2FB03235B0A00FBE1
:1042600003F3019300BF019B5A1E0192002BF9D169
:1042700002B0704704000020D34D6210002800F007
:10428000F18170B582B00446036813F0010F2CD0A1
:10429000994B5B6803F00C03042B1DD0964B5B68B5
:1042A00003F00C03082B12D06368B3F5803F41D0B4
:1042B000002B55D103F1804303F504331A6822F42F
:1042C00080321A601A6822F480221A6037E08A4B22
:1042D0005B6813F4803FE7D0874B1B6813F4003F03
:1042E00003D06368002B00F0BF81236813F0020F36
:1042F00075D0814B5B6813F00C0F5FD07E4B5B6811
:1043000003F00C03082B54D02369002B00F08A80A3
:104310007A4B01221A60FFF77FFC0546764B1B683B
:1043200013F0020F75D1FFF777FC401B0228F5D977
:1043300003209EE1704A136843F48033136063687E
:1043400043B3FFF769FC05466B4B1B6813F4003F52
:10435000CBD1FFF761FC401B6428F5D9032088E12D
:10436000B3F5A02F09D0644B1A6822F480321A608A
:104370001A6822F480221A60E1E703F18043A3F572
:104380003C331A6842F480221A601A6842F4803280
:104390001A60D4E7FFF740FC0546574B1B6813F43F
:1043A000003FA2D0FFF738FC401B6428F5D903205A
:1043B0005FE1514B5B6813F4803FA5D14E4B1B6806
:1043C00013F0020F03D02369012B40F04F814A4ABA
:1043D000136823F0F803616943EAC103136023689B
:1043E00013F0080F33D0A369002B5CD0434B01229C
:1043F000C3F88024FFF710FC05463F4B5B6A13F0BF
:10440000020F21D1FFF708FC401B0228F5D9032039
:104410002FE1394A136823F0F803616943EAC103C5
:104420001360DCE7354B00221A60FFF7F5FB054609
:10443000314B1B6813F0020FD1D0FFF7EDFB401B8F
:104440000228F5D9032014E10120FFF701FF2368BA
:1044500013F0040F00F09680274BDB6913F0805FA8
:1044600034D1254BDA6942F08052DA61DB6903F01E
:1044700080530193019B0125214B1B6813F4807F1E
:1044800026D0E368012B3DD0002B53D103F18043AC
:1044900003F504331A6A22F001021A621A6A22F042
:1044A00004021A6233E0154B0022C3F88024FFF7A0
:1044B000B3FB0546104B5B6A13F0020FC7D0FFF742
:1044C000ABFB401B0228F5D90320D2E00025D3E73F
:1044D0000B4A136843F480731360FFF79DFB064695
:1044E000074B1B6813F4807FCBD1FFF795FB801B34
:1044F0006428F5D90320BCE00010024000004242CD
:10450000007000405F4A136A43F001031362E368DE
:1045100033B3FFF781FB06465A4B1B6A13F0020FB9
:104520002FD1FFF779FB801B41F288339842F3D9F2
:1045300003209EE0052B09D0524B1A6A22F001029B
:104540001A621A6A22F004021A62E0E74D4B1A6AF4
:1045500042F004021A621A6A42F001021A62D6E7B5
:10456000FFF75AFB0646474B1B6A13F0020F08D0B1
:10457000FFF752FB801B41F288339842F3D90320A6
:1045800077E0E5B9E369002B72D03E4A526802F049
:104590000C02082A56D0022B17D03B4B00221A6679
:1045A000FFF73AFB0446374B1B6813F0007F47D0F8
:1045B000FFF732FB001B0228F5D9032059E0314AEE
:1045C000D36923F08053D361DCE72F4B00221A66B6
:1045D000FFF722FB05462B4B1B6813F0007F06D02C
:1045E000FFF71AFB401B0228F5D9032041E0236A9C
:1045F000B3F5803F1AD023494B6823F47413226A21
:10460000606A024313434B601F4B01221A66FFF797
:1046100003FB04461B4B1B6813F0007F0ED1FFF712
:10462000FBFA001B0228F5D9032022E0154A536843
:1046300023F40033A1680B435360DCE7002018E04B
:10464000002016E0012B16D00E4B5B6803F480317E
:10465000226A914211D103F47013626A93420ED11F
:10466000002006E001207047012002E0012000E068
:10467000002002B070BD0120FBE70120F9E7012016
:10468000F7E700BF0010024000004242114B5A6899
:1046900002F00C03042B18D0082B18D1C2F383436B
:1046A0000D49C85C12F4803F0BD00A4B5B68C3F322
:1046B00040430A4AD35C0A4A02FB00F0B0FBF3F025
:1046C0007047084B03FB00F07047054870470648E9
:1046D000704700BF00100240D0480108CC480108D4
:1046E0000024F40000093D0000127A00002800F0C8
:1046F000A08070B50D460446524B1B6803F00703BB
:104700008B420BD24F4A136823F007030B4313600D
:10471000136803F007038B4240F08D80236813F089
:10472000020F17D013F0040F04D0474A536843F424
:10473000E0635360236813F0080F04D0424A5368C3
:1047400043F460535360404A536823F0F003A16878
:104750000B435360236813F0010F31D06368012BC2
:1047600020D0022B25D0384A126812F0020F64D0F4
:1047700035494A6822F0030213434B60FFF74CFAB5
:104780000646314B5B6803F00C036268B3EB820FA3
:1047900016D0FFF741FA801B41F288339842F0D9D6
:1047A000032045E0284A126812F4003FE0D10120BE
:1047B0003EE0254A126812F0007FD9D1012037E08F
:1047C000204B1B6803F00703AB420AD91D4A13684C
:1047D00023F007032B431360136803F00703AB4276
:1047E0002DD1236813F0040F06D0174A536823F421
:1047F000E063E1680B435360236813F0080F07D0B0
:10480000114A536823F46053216943EAC10353609A
:10481000FFF73CFF0C4B5B68C3F303130B4AD35CFD
:10482000D8400B4B18600B4B1868FFF7B1F900200C
:1048300070BD012070470120FAE70120F8E7012050
:10484000F6E700BF0020024000100240BC4801080B
:10485000040000200C0000202DE9F04782B005463E
:10486000884617461E46FFF7D7F90A9B1B1A03EB2B
:104870000609FFF7D1F98246284B1B68C3F3CB33F7
:1048800009FB03F301932B689C6838EA04040CBF0E
:1048900001230023BB423DD0B6F1FF3FF3D0FFF729
:1048A000BBF9A0EB0A00484507D2019A02B14A467B
:1048B000019B013B01939146E5E72A68536823F089
:1048C000E00353606B68B3F5827F0BD0AB6AB3F53E
:1048D000005F14D0012385F85130002385F8503053
:1048E000032018E0AB68B3F5004F02D0B3F5806F3A
:1048F000ECD12A68136823F040031360E6E72A68C6
:10490000136823F4005313602A68136843F40053B8
:104910001360DFE7002002B0BDE8F087040000204C
:1049200010B582B004460B46009200228021FFF7AA
:1049300093FF08B902B010BD636D43F020036365B7
:104940000320F7E7002856D010B50446436A33B970
:104950004368B3F5827F05D00023C36102E00023E2
:10496000036143610023A36294F85130002B3CD0D3
:10497000022384F851302268136823F04003136047
:10498000636803F48273A26802F404421343E2688A
:1049900002F400621343226902F0020213436269C7
:1049A00002F001021343A26902F400721343E269A8
:1049B00002F038021343226A02F080021343A26A13
:1049C00002F40052216813430B60638B226803F0EA
:1049D000040353602268D36923F40063D361002089
:1049E0006065012384F8513010BD84F850302046B2
:1049F000FEF7E2FFBCE7012070472DE9F04383B0EA
:104A00001F460A9D90F85030012B00F01681044695
:104A100088469146012380F85030FFF7FDF806469E
:104A200094F85130DBB26268012B0AD0B2F5827F74
:104A300040F0F080A268002A40F0F380042B40F0A0
:104A4000F280B8F1000F00F0F080B9F1000F00F033
:104A5000EE80002F00F0ED8094F85130DBB2042B93
:104A600002D0052384F8513000236365C4F83890E0
:104A7000E787A787C4F83080E786A7862364636446
:104A800023681A6812F0400F03D11A6842F04002FE
:104A90001A60E368B3F5006F11D063680BB1012FA2
:104AA0000BD1226B236812781A73236B01332363B3
:104AB000E38E9BB2013B9BB2E38601276EE0636805
:104AC0000BB1012F0BD1226B23681288DA60236BA4
:104AD00002332363E38E9BB2013B9BB2E386012743
:104AE0001BE023689A6812F0010F0ED0E28F92B299
:104AF0005AB1DA68A36B1A80A36B0233A363E38F06
:104B00009BB2013B9BB2E3870127FFF785F8801B2F
:104B1000A84202D3B5F1FF3F1ED1E38E9BB21BB971
:104B2000E38F9BB2002B5CD023689A6812F0020FCF
:104B3000D7D0E28E92B2002AD3D0002FD1D0226BF0
:104B40001288DA60236B02332363E38E9BB2013B4E
:104B50009BB2E3860027C4E7012384F85130032089
:104B600059E023689A6812F0010F0ED0E28F92B2DA
:104B70005AB1DA68A36B1A70A36B0133A363E38F96
:104B80009BB2013B9BB2E3870127FFF745F8831BEC
:104B9000AB4202D3B5F1FF3F1ED1EDB1E38E9BB224
:104BA00013B9E38F9BB2E3B123689A6812F0020F46
:104BB000D7D0E28E92B2002AD3D0002FD1D0226B70
:104BC00012781A73236B01332363E38E9BB2013B8C
:104BD0009BB2E3860027C4E7012384F85130032009
:104BE00019E0324629462046FFF79AFE70B9A368BD
:104BF00033B901932368DA6801929B680193019BA2
:104C0000636DC3B9012384F8513004E02023636548
:104C1000012000E00220002384F8503003B0BDE8FA
:104C2000F0830220F7E70220F5E70120F3E70120F7
:104C3000F1E70120EFE70120EDE70220EEE70000B9
:104C400038B590F85030012B5ED00446012380F82F
:104C5000503090F85150EDB29D424FD100294ED0C6
:104C6000002A4CD0032380F85130002343650163B0
:104C70008286C2868363436403648387C3878368B1
:104C8000B3F5004F2AD0A36C204ADA62A36C204A05
:104C90009A62A36C1F4A1A63A36C00225A632268AB
:104CA000E38E9BB20C32216BA06CFFF793F80146A8
:104CB000F8B923681A6812F0400F03D11A6842F05D
:104CC00040021A602268536843F020035360226850
:104CD000536843F0020353600D4610E00268136806
:104CE00023F0400313600268136843F480431360A9
:104CF000C9E7636D43F01003636500E002250023FC
:104D000084F85030284638BD0225FBE71D4D0008C9
:104D10004B4D0008294D00087047704708B5406AA0
:104D2000FFF7FBFF08BD704708B5406A026853688B
:104D300023F003035360436D43F0100343650123E5
:104D400080F85130FFF7EFFF08BD30B583B005465E
:104D5000446AFEF761FF2B681B6813F0200F23D114
:104D6000024621684B6823F020034B6021684B68A2
:104D700023F002034B6064212046FFF7D1FD18B1F8
:104D8000636D43F020036365A36833B9019323681F
:104D9000DA6801929B680193019B0023E38601235B
:104DA00084F85130636D23B92046FFF7B5FF03B097
:104DB00030BD2046FFF7B7FFF9E7000010B584B01B
:104DC000044602685168936803F0410001285AD0F4
:104DD00013F0020F02D011F0800F5BD113F0600FBF
:104DE0005BD011F0200F58D013F0400F0FD094F883
:104DF0005100C0B2032852D0606D40F004006065DD
:104E000000200190D068019090680190019813F003
:104E1000200F0CD0636D43F00103636500230393FF
:104E200093680393136823F040031360039B636D3F
:104E3000002B32D02268536823F0E0035360012333
:104E400084F8513011F0030F31D02268536823F0F9
:104E500003035360E36C4BB1174A5A63E06CFEF7EF
:104E6000F5FF18B1636D43F040036365A36CA3B114
:104E7000114A5A63A06CFEF7E9FF70B1636D43F00D
:104E80004003636509E011F0400FA1D0236C204678
:104E9000984702E0636C2046984704B010BD002399
:104EA0000293D368029393680293029BF5E720462E
:104EB000FFF739FFF1E700BFBD4E000808B5406AB3
:104EC0000023C387C386FFF72EFF08BDFEF75EFEF3
:104ED0000B480C490C4A002302E0D458C450043358
:104EE000C4188C42F9D3094A094C002301E013602D
:104EF0000432A242FBD309F0F1FCFEF72AFD704711
:104F000000000020C806002054670108C8060020E1
:104F1000F00E0020FEE700000B460146184608F0A0
:104F20004FBE00BF102370B5002484B00293036805
:104F300015469E6912686B46009401940394B0472D
:104F40009DF8043003F00603062B09BF012020461C
:104F5000009B2B6004B070BD009890420CBF0620EF
:104F60000120704710B50446024B036000F080FE3C
:104F7000204610BD1849010810B50446044B0360D3
:104F800000F076FE2046082100F04AF8204610BDC9
:104F9000184901082DE9F041069FDDE908158F4207
:104FA000044690461E460CD03146204600F064FE72
:104FB00020B101232F6085F80480AB710020BDE88B
:104FC000F081079900F058FE0028EDD0002085F808
:104FD0000580BDE8F08100BF38B515461C4600F0DD
:104FE0004BFE00B938BD082206232560E26023711C
:104FF00038BD00BF2DE9F041064617461D460C4658
:1050000000F03AFE48B9032D07D823683A463146E6
:105010002046BDE8F0415B691847BDE8F08100BF5C
:1050200006F0FEBF1EB400F08BF81EBCFBF7C8FAFA
:10503000F0B51D4603780C46472B83B019D00020ED
:10504000244E336801909B683046984778B1022718
:10505000019B1B6801932368204631461C6901AA05
:105060000123A04728BB0746384603B0F0BD0127FF
:10507000F1E743784E2BE2D18378552BDFD1C3780B
:10508000432BDCD10379462B18D0432BD7D143795E
:105090002B2BD4D183792B2BD1D1C379012BCED813
:1050A0000BBF50F8200C50F8206C50F8786C58303A
:1050B000C7E73846019B2B6003B0F0BD43794F2B07
:1050C000BDD18379522BBAD1C0790028B7D1024E15
:1050D000B7E700BFE4490108B849010810B5044624
:1050E00000F004F9224612F82039472B04D08368D7
:1050F00023BB8260012010BD63784E2BF7D1A378CB
:10510000552BF4D1E378432BF1D12379432BEED106
:1051100063792B2BEBD1A3792B2BE8D1E379012BEE
:10512000E5D854F8043C0133012B44F8043CE1D1A8
:10513000836844F8083C8260012010BD00F0EAFB5F
:1051400008B500F0D3F8836883B393F82020472A8A
:1051500004D00022826003F1200008BD93F82120D2
:105160004E2AF6D193F82220552AF2D193F8232023
:10517000432AEED193F82420432AEAD193F825203C
:105180002B2AE6D193F826202B2AE2D193F8272068
:10519000012ADED8DA69013ADA61002ADBD100227D
:1051A000996981609A6103F1200008BD00F0B2FBAB
:1051B00038B5044600F09AF8224612F820390568FE
:1051C000472B03D08DBB0260284638BD63784E2B39
:1051D000F8D1A378552BF5D1E378432BF2D123797D
:1051E000432BEFD163792B2BECD1A3792B2BE9D176
:1051F000E379012BE6D854F80C3C002B12DB013389
:1052000044F80C3C4368954203F1FF33436018BFF8
:1052100044F8105C656A18BF0260204607F044FB42
:10522000284638BDC3F10103EAE700F073FB00BF75
:1052300008B500F057F80246006870B390F82010E7
:10524000472906D0BDE8084000212030116007F052
:105250002DBB90F821104E29F4D190F82210552939
:10526000F0D190F823104329ECD190F82410432971
:10527000E8D190F825102B29E4D190F826102B299D
:10528000E0D190F827100129DCD84169002905DB1D
:10529000013908D04B1C0DD0416108BD0131FBD153
:1052A00003691360F8E70169BDE808402030116028
:1052B00007F0FCBA00F02EFB704700BF704700BF3C
:1052C000004870473C490108004870474C490108B4
:1052D00010B504460421FFF7A3FE204610BD00BF11
:1052E000704700BF00487047A80B00200048704777
:1052F000A80B0020024A03490348FFF70DBE00BF78
:1053000000000020E1520008A80B0020502870B5D2
:105310001DD0844600F00F000C2855D8DFE800F0BF
:10532000074426071E545454542A22071E001046D0
:1053300050F8046B4EB10CF07004102C08BF1146ED
:105340001CF0800F0E4418BF36681E6070BDD01C64
:1053500020F0030050F8046B1E6070BD104650F83A
:10536000086BE7E7104630F9026BE3E7104630F8C8
:10537000026BDFE700261046344610F8015B05F0AB
:105380007F0E0EFA04FE15F0800F46EA0E0604F1B9
:105390000704F2D11F2CCDD86D06CBD54FF0FF35C9
:1053A00005FA04F42643C6E700261046344610F8F2
:1053B000015B05F07F0E0EFA04FE2D0646EA0E068E
:1053C00004F10704F3D4B5E707F06CFFFF2808B534
:1053D000034612D003F07003302B084613D005D8D3
:1053E000202B09D1BDE8084007F059BF402B06D15A
:1053F000BDE8084007F040BF03D8002008BD502B8F
:10540000FBD007F04FFFBDE8084007F045BF00BFE5
:10541000F8B506460C46154608B107F02DFF286082
:1054200014F8017BFF2F28D16860204610F8012B6B
:10543000FF2A32D00024102322462B7510F8011BBE
:1054400001F07F039340090644EA030402F10702D6
:10545000F4D4031900242246EB6010F8013B6B756D
:1054600010F8011B01F07F0393401C430B0602F16F
:105470000702F5D404442C61F8BD31463846FFF7E5
:10548000A5FF224601462B1D3846FFF73FFF044685
:10549000204610F8012BFF2ACCD100232A75D9E72A
:1054A00000232DE9F04F164600F0030295B0012AC3
:1054B0000F460A9313D0022A08D13146384607F026
:1054C000C3FE40B9082015B0BDE8F08F002A00F0F7
:1054D000988007F0E7FE092015B0BDE8F08F10F0C6
:1054E000080400F09F800EAA0292009244F002028B
:1054F00003920E910C221946304607F003FA30460B
:1055000007F0C0FE04900028D7D0029A04993046D4
:10551000FFF77EFF9DF84C308146314618460693D2
:10552000FFF754FF014600230C460DF134080591A6
:105530000F2219463046CDF80080109407F0BCF9D0
:105540000D9BDDF848B023F00103D94503F1FF3589
:1055500035D29DF84DA00E9C00215046FFF736FF36
:105560004A4601460BAB5046FFF7D0FE002181466C
:105570005046FFF72BFF4A4601460CAB5046FFF75B
:10558000C5FE002181465046FFF720FF4A460146EE
:1055900043465046FFF7BAFE4FF0000C8146624684
:1055A00019F8011B01F07F0393404CEA030C0B0632
:1055B00002F10702F4D40B9B2344AB421AD94FF0FB
:1055C00000090123CA46039AD10740F183800023D2
:1055D000304619460D22CDF800800A9C07F06CF980
:1055E000049B0620C7E90B3A0D9B7C62C7F8289004
:1055F0003B6268E70C9A1344AB4275D8CB45ABD8F5
:10560000DDE702073FF559AF012303930EAB029389
:105610000023029A3046009219460C220E9707F09A
:1056200071F96CE70EAB1A4600920D6A02930D22D7
:1056300023462146304607F03FF90E9B9D4202D09B
:1056400002230393E4E7029A234621460092304660
:105650000C220E9707F056F9D7E90A43D7F830A085
:10566000BAF1000F3DD0A14604930DF13408B9F111
:10567000000FC0F20C810325002330461A4619465C
:10568000CDF800800D9707F03DF90023012219465F
:105690003046CDF800800D9407F034F900230F2236
:1056A00019463046CDF8008007F006F900230D9A20
:1056B000304602F0010242EA0A020D9219460F2218
:1056C000CDF8008007F01EF9022D64D0072015B038
:1056D000BDE8F08F039A120761D4012B18BF4C4626
:1056E000C5D1384606F05EFD0D9B6046002B3FF4A9
:1056F000E4AE0F9A03EB020A002800F0EB800CF1F5
:10570000FF300BEB0004BAF1000F3FF4D6AE039B61
:1057100013F00803089300F0E280784B3B60784B6D
:105720007B600023DDF818B0CDF818A09A460BF086
:1057300007020992079600210A4614F8010B00F0AF
:105740007F039340050641EA030102F10702F4D406
:105750001F2A05D8400603D5012393405B42194315
:105760000025894626462A4616F8010B00F07F03DD
:1057700093401D43030602F10702F5D41F2A18D8EF
:10578000460616D5012393405B421D4319BB4FF0DB
:10579000010A2C44CFE73846FFF7A0FC96E7012B1F
:1057A00000F0AA80B9F1000FC0F2A2804C46032598
:1057B00062E781B94FF0010A002DEAD15346DDE9D5
:1057C00006A6002B3FF479AE039BD8073FF575AED4
:1057D0000024022550E700290FDC17B1089B002B9D
:1057E0003CD06FF04043119A5B1A52F82330002BE3
:1057F000E2D10323DDE906A6E5E6BBF1FF0F67D0A2
:10580000099A042A3FF665AE01A353F822F000BFBF
:1058100025580008D3540008575800082558000898
:10582000515800088B005B42119A05991A4458465A
:105830004346FFF76BFD0D990029DAD0002FBBD04E
:10584000002238460AABFFF7F3FB0028B4D0D0E7BC
:10585000CB005B42E8E74B005B42E5E76FF040437B
:10586000119E5B1A0A9A56F823100D9206EB8306D6
:1058700021B9BEE756F8041F0029BAD043460022DA
:1058800038463144FFF7D4FB0028F3D094E7029A5E
:1058900004993046FFF7BCFD31469DF84C00FFF7F8
:1058A00095FD6FF04041119A091B52F821300546D1
:1058B00002EB810033B10246002352F8041F01338A
:1058C0000029FAD1C7E90A35042378633B63D2E69D
:1058D0000023A9E7BAF1000F7FF476AFEDE5FB797D
:1058E000012B0CBF57F8203C07F158030A9318E727
:1058F00000F01EF8FFF75CFC00F00CF8474E554333
:10590000464F520008B5804707F0CCFCFFF750FC2B
:1059100007F0C8FC08B5034B1868BFF35B8FFFF7AF
:10592000F1FF00BF1400002008B58047FFF7F2FF29
:1059300008B5034B1868BFF35B8FFFF7F5FF00BF97
:1059400010000020024B1868BFF35B8F704700BF48
:1059500014000020024B1868BFF35B8F704700BF34
:1059600010000020012810B51AD8BFF35B8FA1F1F9
:10597000280353E8002F013A43E800200028F8D11B
:10598000BFF35B8F5AB951F81C3C01F158040BB1BD
:10599000204698472046BDE8104006F0C1BB10BD28
:1059A00051F8140CFFF7AEFF002310B540E91E12AA
:1059B00040F8803C0446FFF7CDFF44F8700CFFF739
:1059C000C1FF034606490748074A44F8580C44F803
:1059D000541C44F8502CA4F1800044F86C3C10BDD9
:1059E000432B2B00474E55436559000870B50446BC
:1059F0000E461546FFF77AFC034620465C683146A2
:105A000001342A465C60FFF7CFFF0123044644F8C7
:105A1000283B2046FAF7C2FD2046FFF7C9FBFFF7F7
:105A200079FF00BF10B5FFF761FCD0E900420132F9
:105A3000426064B194F82020472A0AD00022026014
:105A400020342046FAF7CEFD2046FFF7B1FBFFF7E2
:105A500061FF94F821204E2AF0D194F82220552A93
:105A6000ECD194F82320432AE8D194F82420432A47
:105A7000E4D194F825202B2AE0D194F826202B2A73
:105A8000DCD194F82720012AD8D862695242626199
:105A9000D6E700BF0268D30706D4427803462AB986
:105AA000012210465A7070470020704710B504203C
:105AB00006F01EFB044600F029F82046014A024980
:105AC000FFF794FFDD5A0008244A010800234370C1
:105AD000704700BF01230360704700BF10B5044644
